:020000040800F2
:10000000F0090020250300089F5600089B510008B6
:100010009D560008B9200008ED60000800000000AF
:10002000000000000000000000000000A3560008CF
:10003000BB20000800000000A1560008A5560008DB
:100040003F0300083F0300083F0300083F03000888
:100050003F0300083F0300083F0300083F03000878
:100060003F0300083F0300083F0300083F03000868
:100070003F0300083F0300083F0300083F03000858
:100080003F03000800000000651D00083F03000852
:100090003F0300083F0300083F0300083F03000838
:1000A0001D57000841570008355700082957000818
:1000B0003F0300083F0300083F0300083F03000818
:1000C0003F0300083F0300083F0300083F03000808
:1000D0003F0300083F0300083F0300083F030008F8
:1000E0003F0300083F0300083F0300083F030008E8
:1000F0003F0300083F0300083F0300080000000022
:10010000000000003F030008000000003F0300085B
:100110003F030008000000003F0300083F03000801
:100120003F0300083F0300083F0300083F030008A7
:100130003F03000800000000000000003F0300082B
:100140003F0300083F03000800000000000000001B
:10015000000000000000000000000000000000009F
:100160000000000000000000000000003F03000845
:100170003F03000800000000000000000000000035
:10018000000000003F030008000000000000000025
:10019000000000000000000000000000000000005F
:1001A00000000000000000003F0300083F030008BB
:1001B0003F0300083F0300083F0300080000000061
:1001C000000000003F0300080000000000000000E5
:1001D0003F0300083F03000800F002F800F092F827
:1001E0000AA090E8000C82448344AAF10107DA4592
:1001F00001D100F087F8AFF2090EBAE80F0013F052
:10020000010F18BFFB1A43F001031847707E00006E
:10021000907E0000103A24BF78C878C1FAD85207FF
:1002200024BF30C830C144BF04680C607047000070
:100230000023002400250026103A28BF78C1FBD8EF
:10024000520728BF30C148BF0B6070476E2900F0CD
:10025000EF81702900F03983662907F08A846529C7
:1002600007F08784672907F08484612907F0838475
:1002700003681B0A28BF41F08001692900F09C81B6
:10028000642900F09981752900F096816F2900F0AA
:10029000C682782900F00583E92900F06182E4290B
:1002A00000F05E82F52900F05B82EF2900F0C38246
:1002B000F82900F004830368DB0928BF41F08001BE
:1002C000632901F00B80732901F01080E32901F00C
:1002D0001B80F32901F02080002070471FB507F034
:1002E0003EFC01F06FF804000020002106F0C2FD82
:1002F000401C60600020002106F0A6FDE0601FBDEC
:1003000010B510BD01F030F81146FFF7E7FF06F019
:10031000EBFB01F00DF903B4FFF7F2FF03BC01F0B2
:1003200051F900000948804709480047FEE7FEE709
:10033000FEE7FEE7FEE7FEE7FEE7FEE7FEE7FEE795
:1003400004480549054A064B704700000D57000850
:10035000D9010008F0030020F0090020F00500207A
:10036000F005002053EA020C00F069802DE9F04B03
:100370004FF00006002B1FBFB3FA83F503FA05F414
:1003800024FA05F65E4012BF1643B2FA82F502FA6D
:1003900005F4C5F120051EBF22FA05FC44EA0C0451
:1003A000203556EA044C4FEA144418BF641C4FF041
:1003B00000084FF00009904271EB030C39D300297B
:1003C00019BFB1FA81F701FA07F6B0FA80F700FA1F
:1003D00007F6C7F120071EBF20FA07FC46EA0C0605
:1003E0002037B6FBF4FCA7EB0507103F07F01F0B07
:1003F000CBF120060CFA0BFB2CFA06F644BFB346F1
:100400000026202FA4BF5E464FF0000B5BEA060CCF
:1004100008BF4FF0010B19EB0B09ABFB027C48EB5B
:100420000608C01B06FB02CC0BFB03CC71EB0C01D6
:10043000C1E70B46024641464846BDE8F08B13B57E
:100440004FF000004FF00001AFF30080BDE81C400A
:10045000704700007CB51D4616460C00009001D088
:100460002044401E074B7B442A4669460190304693
:1004700000F0F7F805461CB10020694600F004F9C9
:1004800028467CBD290200004FF0000200B513464B
:1004900094469646203922BFA0E80C50A0E80C50A4
:1004A000B1F12001BFF4F7AF090728BFA0E80C5055
:1004B00048BF0CC05DF804EB890028BF40F8042B4E
:1004C00008BF704748BF20F8022B11F0804F18BFBB
:1004D00000F8012B704770477047704710B500F067
:1004E000C3FA006810BD10B5044600F0BDFA046000
:1004F00010BD70B5044685690068C10601D5302677
:1005000000E02026C00707D070BDD4E901213046A5
:100510009047206A401C20626D1EF6D570BD70B5F4
:10052000044685690078C00707D170BDD4E9012170
:1005300020209047206A401C20626D1EF6D570BDB9
:1005400009684A0501D540B27047C905FCD500B21B
:10055000704709684A0501D5C0B27047C905FCD586
:1005600080B2704770B50C460546012A05D0287840
:10057000800600D5EA69002302E0012305E05B1C48
:10058000934202D2E05C0028F9D1A869E618C01AAB
:10059000A861286A184428622846FFF7AAFF04E0E9
:1005A000D5E9012114F8010B9047B442F8D328464D
:1005B000FFF7B5FF70BD00002DE9F04106460024AD
:1005C00010687529314616A510D0FFF7B9FF00282D
:1005D00002DA404213A507E031688A0701D512A567
:1005E00002E0490704D511A5012401E0FFF7B1FF9E
:1005F00000210A2206F1240709E0B0FBF2FCB0FB5F
:10060000F2F302FB1C00303078541846491C0028D5
:10061000F3D123462A463046BDE8F04100F06DBADA
:10062000000000002D0000002B0000002000000052
:1006300011680268006A530501D508700AE0D30505
:1006400001D5088006E0130603D5C217C1E90002F0
:1006500000E008600120704701694A1C02610878C7
:10066000704700B58FB0CDE90131002105910549F2
:100670007944CDE903101146684600F031F90FB016
:1006800000BD0000E5FFFFFF0A6802F8010B0A60E9
:100690007047D1E900239A4202D2531C0B601070BC
:1006A000704700002DE9FF5F15468A460446DFF8D3
:1006B000AC80F8440027D8E900103E46CDE9001090
:1006C00010E03AF816106A4602A800F029FE411C14
:1006D00007D02178890603D5E269391891420DD8EF
:1006E0000744761C2078800602D5E069B84205DD13
:1006F000AE42E6DB3AF816000028E2D1A069C01B42
:10070000A0612046FFF7F5FED8E90010CDE9001002
:10071000002017E03AF818106A4602A800F000FE20
:10072000B0F1FF3F81460BD000250DF1080B05E02D
:10073000D4E901211BF8050090476D1C4D45F7D306
:1007400008F10100B0428046E4DB206A38442062B0
:100750002046FFF7E4FEBDE8FF9F0000267800007A
:100760002DE9F0418046D21D22F007020025D2E992
:100770000002F52915A614D0011E72F1000106DA57
:100780000023D0EB030063EB020211A608E0D8F8C7
:1007900000108B0701D50FA602E0490701D50EA670
:1007A00001251146002408F1240704E000F060F957
:1007B00030323A55641C50EA0102F7D12B463246DA
:1007C00021464046BDE8F04100F097B90000000026
:1007D0002D0000002B0000002000000030B400219C
:1007E00000F1240408E002F00705D208303542EA9F
:1007F0004372DB086554491C52EA0305F3D10468CF
:10080000002310A2250707D5A40600D421B1C4698E
:1008100001230DA2641EC46130BC00F06EB910B596
:10082000044621461068FFF794FE02462046BDE8C4
:1008300010400023D2E7D21D22F00701D1E90023A6
:10084000CCE700000000000030000000F0B40D46CE
:100850000188090502D5214C7C4402E01F4C7C44F0
:100860000E34002100F1240608E002F00F071209FF
:10087000E75D42EA03721B097754491C52EA0307F9
:10088000F3D102780023120704D5702D06D009B1E8
:10089000022311342246F0BC00F02FB9012310349A
:1008A000F8E770B504460D4621461068FFF751FE83
:1008B000024629462046BDE870400023C6E7D21D07
:1008C00022F00703D3E90023C0E70368126843F06E
:1008D000200303600823C3610023B7E78876000084
:1008E0002DE9F05F894604464FF0000ADFF874B145
:1008F000FB44C0F820A02046E1688847002874D057
:10090000252806D0D4E901219047206A401C2062A6
:10091000F1E700265F462046E16888472028054623
:1009200007DB312D05D2781910F8200C08B10643E9
:10093000F1E7B00701D526F00406C4F81CA0002793
:10094000C4F818A02A2D09D0284605F099FF38B31D
:1009500004EB8708303DC8F8185019E059F8041B1B
:10096000204604EB87029161E1688847012F054624
:1009700018D1E069002820DA26F020061DE0D8F81A
:10098000180000EB800005EB40003038C8F8180074
:100990002046E1688847054605F072FF0028EED141
:1009A000012F0AD02E2D08D12046E16888477F1CF0
:1009B0000546022F46F02006C4DBA069002803DAB2
:1009C000404246F00106A061F00701D026F0100673
:1009D0006C2D0BD0682D09D04C2D39D06A2D35D017
:1009E000742D35D07A2D33D016E038E0E1682F46EB
:1009F00020468847B842054609D16C2F26D04FF4CF
:100A00008060E168064320468847054604E06C2F75
:100A10001AD04FF4807006430DB3A5F14100192898
:100A200002D8203546F400664A462946204626600C
:100A30004E46FFF70BFC80B101280BD0F61D26F0C7
:100A4000070000F1080956E74020E4E78020D8E7D6
:100A50000020D6E706F104094DE7284652E7206A50
:100A6000BDE8F09F18760000004870479003002012
:100A700030B5B0F10A024FEA900E71F100034EEA70
:100A8000817EB0EB0E0061EB91014FEA101E4EEA41
:100A9000017E10EB0E0041EB11114FEA102E4EEAD1
:100AA000016E10EB0E0041EB11214FEA104E4EEAA1
:100AB000014E10EB0E0041EB1141401841F10001D5
:100AC0004FEAD00040EA41704FEAD10110EB8005B7
:100AD0004FEA810444EA907444EB01046D1944EB3D
:100AE0000404521BA3414FF0000348BF0A3200D553
:100AF00030BD401C41F1000130BD2DE9F0470D46ED
:100B000099469246044600F124080168880604D5F7
:100B1000E06921F01001216000E00120A84201DD20
:100B2000471B00E00027A1697A1902EB0900081AA7
:100B3000A0612078C00602D42046FFF7DAFC002628
:100B400008E0D4E901211AF806009047206A401C09
:100B5000761C20624E45F4DB2078C0060AD520467C
:100B6000FFF7C7FC06E0D4E9012130209047206A56
:100B7000401C2062381EA7F10107F4DC07E0D4E92D
:100B8000012118F805009047206A401C2062281EA9
:100B9000A5F10105F3DC2046FFF7C1FC2078000633
:100BA00002D50220BDE8F0870120FBE770472DE960
:100BB000FF4F0C461E464FF0FF378BB0D2E90001C5
:100BC000DDF860800A908A46C1F30A5505B93D46B2
:100BD000002108464FF00000BAF1000F00F4400079
:100BE00005DA00EB80004FF4400101EA50004FEAC3
:100BF0009059B9F1010F00DDB9460A9850EA4A0050
:100C00000ED044F61050A5F2FF3545432F14B8F12D
:100C1000000F1ED07542291E1EDDC9F100021CE026
:100C2000B8F1010F4FF0000001D0302103E0F24392
:100C300005E02154401CB042FBDB3046002200217D
:100C400021540B99C1F80880C1E900200FB0BDE81C
:100C5000F08FBD1B6D1CDEE74A4600DA694206A82C
:100C600000F0F4FB06AB93E8070003AB83E8070052
:100C700050460A9900F0ADFC8DE80700A0F5005041
:100C80001F3800900398002D0ADD42F21F014A46EA
:100C90000844002303A90390684600F016FF09E00A
:100CA000A0F500504A461F38002303A90390684668
:100CB00000F020FF8DE807000004000C03D04FF087
:100CC000FF30410800E01046B8F1000F03D00022C9
:100CD000009215461EE0751E05D4FFF7C9FE30329E
:100CE00062556D1EF9D5B3460122084302D0002299
:100CF0007F1C04E02078302801D100227F1E002ACA
:100D0000099784D01DE0112D07DAFFF7B1FE3032CC
:100D100062556D1C50EA0102F5D1084302D00098DB
:100D2000C8B10EE00021681E05E0235C625C6354DC
:100D30002254401E491C8142F7DBAB46A81B401ED3
:100D40000990002004F80B000B98099AC0F808805D
:100D5000C0E9002B7AE711264FF0000857E72DE98C
:100D6000F04F88460446D21D22F0070191B0D1E928
:100D70000001CDE90A0105F0BAF902460B98C00F4F
:100D800001D02D2007E02068810701D52B2002E04B
:100D9000202101EAC000032A099001D0072A05DBBF
:100DA00003464146204600F011FB0BE12078800607
:100DB00001D5E06900E00620B8F1650F814606D054
:100DC000B8F1660F18D0B8F1670F70D131E000208C
:100DD000B9F1110F009001DB112301E009F10103CA
:100DE0000AAA01A90CA8FFF7E2FEDDE90C700026B3
:100DF00009F10105834647E001204B4600904FF082
:100E000000470AAA01A90CA8FFF7D1FEDDE90DB041
:100E10000C995D46002610B909F101000D18B9EBD7
:100E2000050003D4C0F1FF3609F10105A5EB090067
:100E30002BE0B9F1010F01DA4FF001090020B9F1FF
:100E4000110F0090484601DD112300E003460AAA75
:100E500001A90CA8FFF7ABFEDDE90C704D4600269A
:100E60008346207800070AD4AB4500DA5D4601A826
:100E7000012D04DD411911F8011C302907D04F451F
:100E800002DA17F1040F04DA012082460FE06D1E2A
:100E9000EEE7002F02DCED1B3E4403E0781CA84285
:100EA00000DD7D1CB81B00F1010A4FF000472078DF
:100EB000000703D4AA4501DB4FF0FF3A0021B7F148
:100EC000004F0DF143088DF8431024D002202B234E
:100ED000002F01DA7F422D230A21021EA0F101001A
:100EE00000DC5FB197FBF1FC97FBF1F201FB1C7C8E
:100EF00017460CF1300C08F801CDEEE7A8F101001F
:100F000003702188090501D5452100E06521A0F184
:100F1000010800F8011C09980FA9A1EB0807FF1DA3
:100F200000B10120411901EBEA70A1693844081AA7
:100F3000401EA0612078C00602D42046FFF7D9FAEF
:100F4000099828B1D4E901219047206A401C206209
:100F50002078C00622D52046FFF7CBFA1EE0002EEF
:100F600004DBB34502DD01A8805D00E03020D4E958
:100F700001219047206A401C2062761CAAF10100E2
:100F80005FEA000A0AD100F01DFAC0680168405CFF
:100F9000D4E901219047206A401C2062281EA5F157
:100FA0000105DCDC07E0D4E9012118F8010B9047CA
:100FB000206A401C2062381EA7F10107F3DC20469E
:100FC000FFF7ADFA032011B041E600002DE9F04F24
:100FD00004460D46D21D22F0070089B0D0E90097E3
:100FE0004846394605F083F80246F80F01D02D2314
:100FF00007E02068810701D52B2302E0202101EAC8
:10100000C0038DF820300BB1012000E00020032A3E
:10101000824601D0072A04DB2946204600F0D6F993
:101020003FE12078800601D40D2500E0E569C7F393
:101030000A560D2D49DA00214FEA175B08464FF09A
:101040000000002F00F4400007DA00EB80004FF4AE
:10105000400100EBD07001EA60008115012901DD3B
:101060004FF0FF3100224FEA850CBCF1180F06D378
:101070001346ACF118004FF08052C24003E04FF429
:10108000801323FA0CF30CF10C0CBCF1200F04D3E9
:10109000ACF1200C09FA0CF001E007FA0CF0002981
:1010A0004FF0004801DD18B90FE00ED140450CD3D8
:1010B00019EB02095F4121B9404502D19F4329EA5A
:1010C0000209BBEB175F00D0761C2088000502D513
:1010D0007B48784402E07A487844193808AA3023DB
:1010E00002F80A30037C0AF10101002E0AF1020A1B
:1010F00053546A4602DC4FF0300101E04FF03101F9
:101100004FF001088DF8001002D0A6F2FF3603E080
:1011100059EA470100D06B4E002D02DC2178090707
:1011200004D54FF002082E218DF80110C44600218D
:101130000BE0C7F303433F01C35C491C6D1E02F87B
:101140000830052908F1010801DA002DF1DC002141
:101150000CE000EB1973491C1B786D1E082902F87E
:1011600008304FEA091908F1010801DA002DF0DC16
:1011700021688B0602D516E0A8F10108E04505DDDF
:1011800002EB080313F8013C302BF5D0B8F1000F47
:1011900009DD02EB080313F8013C2E2B03D10907EC
:1011A00001D4A8F10108002D05DD3E2102F8081048
:1011B0006D1E08F10108407C002E02F8080008F1BD
:1011C000010804DA2D20764202F8080002E02B2004
:1011D00002F808000A214FF47A70864208F10108EB
:1011E0000BDB96FBF0F3303302F8083096FBF0F39C
:1011F00008F1010800FB136601E0642E0CDB64209B
:1012000096FBF0F3303302F8083096FBF0F308F168
:10121000010800FB136601E00A2E06DB96FBF1F0E5
:10122000303002F8080008F1010896FBF1F001FBEC
:101230001060303002F80800A16908F1010808EBDD
:10124000050202EB0A00081AA0612078C00602D449
:101250002046FFF74EF9216A08AE01EB0A00206232
:1012600004E0D4E9012116F8010B9047BAF1010A14
:10127000F7D22078C00602D52046FFF73AF96E462D
:1012800009E016F8010B3E280FD0D4E90121904760
:10129000206A401C2062B8F10108F2D22046FFF714
:1012A0003EF909B00320BDE8F08F206A284420628F
:1012B00003E0D4E90121302090476D1EEBD3F8E71D
:1012C000FD6E000002FCFFFF10B5436913B1AFF3E0
:1012D000008001E0FFF746F9012010BD127800F10F
:1012E00024010A7000224A700122EDE711684FF0D4
:1012F000FF32E9E710B5436913B1AFF3008001E0B5
:10130000FFF7D0F9012010BD128800F1240182847A
:101310000022C2840122EDE711684FF0FF32E9E7B5
:1013200070B516460C46054600F044F8036893F87D
:101330000101012806D0FF2C0FD8185D68B10120EB
:101340002C7070BDD3F807013246214603F2071313
:1013500003442846BDE8704018474FF0FF3070BD89
:1013600000487047900300207546FFF7F9FFAE462E
:1013700005006946534620F00700854618B020B5A1
:10138000FEF7DEFFBDE820404FF000064FF00007FB
:101390004FF000084FF0000B21F00701AC46ACE81D
:1013A000C009ACE8C009ACE8C009ACE8C0098D468A
:1013B0007047000010B500F005F8001D10BD00BF1B
:1013C000B55A000000487047B00300202DE9F041F5
:1013D0001F46044603260168072A01F4006004DB67
:1013E00008B116A505E016A503E008B115A500E0B3
:1013F00015A521F010002060A069C01EA0610FB1EA
:10140000401EA0612046FFF774F84FB1D4E90121D6
:1014100038469047206A401C2062C01C206206E0CB
:10142000206AFAE7D4E9012115F8010B9047761EEE
:10143000F8D22046FFF773F8BDE8F0814E414E0028
:101440006E616E00494E4600696E66002DE9F047F8
:10145000814616468AB0354878440DC88DE80D009F
:1014600032487844801C03AC0DC884E80D0041F676
:101470009B300844372190FBF1F290FBF1F5A5F188
:10148000800501FB12041B3C02D56442012000E0F0
:101490000020DFF898A080460027FA44AAF1BE0A8F
:1014A0000EE0E0070AD03246684607EB4701012309
:1014B0000AEB810100F01EFB8DE8070064107F1C21
:1014C000002CEED1194F7F44AE3F19E0E80715D04C
:1014D00007EB04100DF1180A90E80E008AE80E00E0
:1014E000C068F04201D1981908903246012306A93C
:1014F00003A800F0FFFA03AB83E807006D10641C3B
:10150000002DE3D14FF0010332466946B8F1000FD8
:1015100003A802D000F0D9FA01E000F0EBFAC9E923
:101520000001C9F808200AB0BDE8F087086C000087
:1015300010B50446AFF300802046BDE81040FEF72A
:10154000EABE00004FF0013C50F8042B51F8043B78
:101550009A4221D1A2EB0C03934313EACC1317D187
:1015600050F8042B51F8043B9A4215D1A2EB0C031E
:10157000934313EACC130BD150F8042B51F8043BDE
:101580009A4209D1A2EB0C03934313EACC13DBD0AC
:101590004FF00000704700BFD01A01BAB1FA81F1D4
:1015A00001F0180122FA01F0CB40C1F12001DBB2B9
:1015B000C0B2C01A2CFA01F3D11A914311EAC31137
:1015C000E6D1704701491820ABBEFEE726000200B5
:1015D00070475FEA400C08BF91F0000F4FEA8C2380
:1015E0004FEAC12243EA51514FEA1C5018BF00F59F
:1015F000F0404FEA300018BF41F000415FEA6C5CF8
:1016000000F02980BCF1FF3F08BF40F080407047E8
:10161000130C06BF12044FF0100C4FF0000C130E09
:1016200004BF12020CF1080C130F04BF12010CF1DD
:10163000040C930F04BF92000CF1020CD30F04BFF3
:1016400052000CF1010C11464FF00002A0F11F00F6
:10165000A0EB0C00704711F0004F08BF704731F04D
:1016600000413FF4D5AF0B0C06BF09044FF0100C3E
:101670004FF0000C0B0E04BF09020CF1080C0B0F0D
:1016800004BF09010CF1040C8B0F04BF89000CF19D
:10169000020CCB0F04BF49000CF1010CCCF120036C
:1016A000A0EB0C0022FA03F302FA0CF241EA030168
:1016B00000F10100704720F07F4C80EA030023F026
:1016C0007F47ACEB070303F57C5300F0004003F1C8
:1016D000FF032DE980494FEA154B09B44FEA144343
:1016E00025EA0B4E24EA03480FF2042606EB1327E3
:1016F00049083E785FEA320203FB0667C7F5000738
:1017000007FB06F64FEA54374FEAD64606F10206C3
:1017100007FB066CCCF1005C4FEA1C472CEA074C37
:1017200007FB06F40CFB06F504EB15464FEA96168C
:1017300034BF00204FF000404FEAD13706FB07FCD2
:101740004FEA1C4C0CFB0BF7D21B03FB0CF761EBB5
:1017500007010CFB0EF7B0EB074072EB17420CFBD6
:1017600008F734BFA2EB0742B2EB074261EB174127
:101770004FEA0C444FEA910706FB07FC4FEA1C4C6A
:101780000CFB0BF7B0EBC74072EB573203FB0CF7C7
:1017900034BFA2EBC742B2EBC74261EB57310CFB3F
:1017A0000EF7B0EBC70072EB57720CFB08F734BFB3
:1017B000A2EBC702B2EBC70261EB5771039F4FEA7E
:1017C000816141EA921104EBCC044FEAD1374FEA30
:1017D000826206FB07FC42EA90124FEA80604FEA01
:1017E0001C4C0CFB0BF7D21B03FB0CF761EB070146
:1017F0000CFB0EF7B0EB074072EB17420CFB08F73F
:1018000034BFA2EB0742B2EB074261EB17414FEA4C
:101810008C554FEA910704EB9C2406FB07FC4FEA2A
:101820001C4C0CFB0BF7B0EBC74072EB573203FBC1
:101830000CF734BFA2EBC742B2EBC74261EB5731A2
:101840000CFB0EF7B0EBC70072EB57720CFB08F7FE
:1018500034BFA2EBC702B2EBC70261EB577115EBC5
:101860004C254FEA816141EA92114FEA82624FEAC8
:10187000D13742EA901206FB07FC44F100044FEA1C
:1018800080604FEA1C4C0CFB0BF7D21B03FB0CF7E0
:1018900061EB07010CFB0EF7B0EB074072EB174250
:1018A0000CFB08F734BFA2EB0742B2EB074261EB37
:1018B000174115EB1C154FEA813141EA92414FEA7D
:1018C000823242EA90424FEA80304FEA0C7644F18D
:1018D000000448EA03434EEA0B484FF0000EB2EB17
:1018E000080C71EB030724BF624639464EEB0E0E1F
:1018F0004FF0000B0018524149414BEB0B0BB2EB80
:10190000080C71EB03077BF1000B24BF62463946DC
:101910004EEB0E0E4FF0000B0018524149414BEBBD
:101920000B0BB2EB080C71EB03077BF1000B24BF30
:10193000624639464EEB0E0E51EA020718BF46F0DA
:10194000010616EB0E7655F1000254F1000103D5A5
:10195000BDE88901BDE80088BDE88901BDE800480F
:10196000B619524141EB0101A3F101037047808098
:101970007F7E7D7C7B7A79787776767574737271E9
:1019800071706F6E6E6D6C6C6B6A6A6968686766A1
:1019900066656464636362616160605F5F5E5E5D33
:1019A0005D5C5C5B5B5A5A595958585757565655A7
:1019B00055555454535352525251515050504F4F09
:1019C0004F4E4E4D4D4D4C4C4C4B4B4B4A4A4A4959
:1019D000494948484847474747464646454545449C
:1019E0004444444343434342424242414141002B29
:1019F0009C4630D477002BD01CB54FEA370703B490
:101A00004FF010004FF01001BAF1000F06D0BCF1FA
:101A1000000FDCBF40F0080040F008014FF000006C
:101A20000FBCBDE810400BF1010BBBF1010F08BF6B
:101A30005FEA170722BF12F1010211F101014FF015
:101A4000004143F1000300F0004043EA000070470A
:101A5000F9D35708D0E746EA064613F1400F4FEA9C
:101A600016461FDD13F1200FDFBF16430A46002183
:101A700020335B42BED0C3F1200746EA064602FA95
:101A800007F74FEA164646EA0706C3F1200722FA8F
:101A900003F201FA07F721FA03F14FF0000342EADB
:101AA0000702A7E746EA020646EA06464FEA164656
:101AB00046EA0106BCBF46EA0646360C4FF0000374
:101AC0004FF000024FF0000194E72DE9804C9A4658
:101AD000934670B491E8380007C831EA400C48BF1B
:101AE00034EA430C03D5FFF7E6FDFFF780FFF0BCB7
:101AF000BDE8008C2DE9804C9A46934670B491E87D
:101B0000380007C810F0804F08BF13F0804F03D192
:101B100000F005F8FFF76BFFF0BCBDE8008C20F08B
:101B20007F4780EA030023F07F4C07EB0C03A3F50B
:101B30007C5300F00040A3F1FE0392F0000F00F090
:101B4000B38095F0000F00F077802DE901494FEA4E
:101B500011404FEA144621EA004800FB06FC24EA43
:101B6000064708FB06F607FB08F800FB07F718EB2B
:101B700006484CEB164C4FEA124B18EB07484FEA5D
:101B800015464CEB174022EA0B4E0BFB06FC25EAF0
:101B900006470EFB06F607FB0EFE0BFB07F71EEBD8
:101BA000064E4CEB164C4FF000061EEB074E4CEB6E
:101BB000174B18EB0B0840F1000018EB0E0B58EB1D
:101BC000000840F100008F1A4FF000013CBFC943EC
:101BD000661B14BFB5EB040C00213CBFC943F61BC8
:101BE0004FEA17444EEA8E0E27EA04454FEA1C4797
:101BF00004FB07622CEA074C05FB07F70CFB05F614
:101C000004FB0CFC16EB074642EB174216EB0C46A6
:101C100042EB1C421BEB060658EB0202414146EA2E
:101C20009E0601D5BDE80189B619524141EB01017B
:101C3000A3F10103BDE801894FEA14454FEA1147BA
:101C400024EA054621EA074C05FB07F406FB07F7E3
:101C50000CFB06F105FB0CFC11EB074144EB1744B0
:101C60004FEA124711EB0C4144EB1C4422EA074CAB
:101C700005FB07F206FB07F70CFB06F605FB0CFC61
:101C800016EB074642EB174216EB0C4642EB1C459F
:101C90006A1854F1000148BF7047B619524141EB30
:101CA0000101A3F10103704795F0000F37D04FEA0F
:101CB00011424FEA144721EA024624EA074C02FB8C
:101CC00007F106FB07F70CFB06F402FB0CFC14EB18
:101CD000074441EB17414FEA154714EB0C4441EB25
:101CE0001C4125EA074C02FB07F506FB07F70CFB36
:101CF00006F602FB0CFC16EB074645EB174516EB08
:101D00000C4645EB1C42121951F1000148BF7047C7
:101D1000B619524141EB0101A3F1010370474FEAAB
:101D200014454FEA114724EA054621EA074C05FB12
:101D300007F106FB07F70CFB06F24FF0000605FB68
:101D40000CFC12EB074241EB174112EB0C4251EB3A
:101D50001C4148BF7047921841EB0101A3F10103F8
:101D600070470000014800F02DBF00005400002023
:101D700010B509212DED048B2E4800F081FC00EEFA
:101D8000100A9FED2D9A9FED2D8AB8EE400A2C4C3B
:101D9000F0EE048A40F20F1120EE090A2548C0EE49
:101DA000080A94ED000A00EEA80A84ED000A00F08B
:101DB00067FC00EE100A40F215211E48B8EE400AFA
:101DC00020EE090AC0EE080A94ED010A00EEA80A06
:101DD00084ED010A00F054FC00EE100A1949B8EE37
:101DE000400A60EE090A80EE880AD4ED020A40EE4D
:101DF000280AC4ED020A0888401C80B208806428C2
:101E000015D394ED001A9FED100A04F10C00C1EEF9
:101E1000001AC0ED001A94ED011AC1EE001A80EE0E
:101E2000801AC0ED011A80ED021A08488860BDECE6
:101E3000048B10BD540000203333534000F07F4525
:101E400030000020000000200000C8427D1F000874
:101E500070B50446006881688268C1F3400112F0E1
:101E6000010F28D039BB816801F00D01012914D17F
:101E70008168124A1140891C816021680320086032
:101E800001F0A8FC054612E001F0A4FC401B02286A
:101E90000DD920688068C00709D0E06D40F01000BF
:101EA000E065206E40F001002066012070BD2068D2
:101EB0008068C007E8D1002070BD0000C0FFFF7F30
:101EC000F8B50446002000902068816811F0010FE9
:101ED00041D18168214A11422ED18168D5432940E0
:101EE000491C81601E48806800F0E07000020DD53A
:101EF0001C481D490068B0FBF1F0401C00EB40009D
:101F0000800000E0401E00900028FBD101F062FC40
:101F100006461BE0816811F0010F03D1816829405A
:101F2000491C816001F056FC801B02280ED92068F4
:101F30000068C043C00709D0E06D40F01000E065C4
:101F4000206E40F0010020660120F8BD2068016885
:101F5000C943C907DED10020F8BD00003F00008062
:101F6000000300501C000020400D030002490148FE
:101F700088607047711D0008000000202DE9F043C3
:101F800009212DED048B85B0404800F079FB00EE6F
:101F9000100A9FED3F8ADFED3F8AB8EE400A3E4CC3
:101FA000B0EE049A04F10C0820EE080A40F20F117A
:101FB0003648C0EE280A94ED000A10EE890A88ED32
:101FC000000A00F05DFB00EE100A40F215212F48D8
:101FD000B8EE400A20EE080AC0EE280A94ED010A85
:101FE00010EE890A88ED010A00F04AFB00EE100AA3
:101FF0002A48B8EE400A20EE080AC0EE280A94EDFE
:10200000020A10EE890A88ED020A0068406ADFF8C9
:1020100090904FF4C871A9F80200D9F80C0090FB19
:10202000F1F201FB1200401C00EE100AC9F80C008E
:10203000D9ED010AB8EEC00A20EE201ADFED190A28
:10204000B7EE000A04F0ACFDD8F8080005F016FD64
:1020500006460F46D8F8040005F010FD04460D466C
:10206000D8F8000005F00AFD41EC100BB9F80200A9
:1020700053EC102BCDE903708DE870000AA004F03A
:10208000CDFE05B0BDEC048BBDE8F083540000200C
:102090003333534000F07F453C000020E80100202E
:1020A00000000020000000002534662C2534662C3A
:1020B0002534662C25640A00FEE7704772B6FEE7F9
:1020C000F8B500260446009690F858000D46012801
:1020D0000BD0012084F858002046FFF7B9FE01001C
:1020E000E06D04D040F010002AE00220F8BD20F49A
:1020F000885040F00200E06520688268134B1A4067
:1021000005F080431A4342F000428260104A206882
:102110000EE0009B5B1C0093934209D3E06D20F01E
:10212000020040F01000E06584F858600120F8BD1E
:102130008368DB0FEDD1E06D20F0020040F001007C
:10214000E06584F858600846F8BD0000C0FFFF3F16
:1021500002DE0400704700002DE9F84F4FF0000840
:102160000446CDF800800D4694F85820DFF8EC9333
:10217000616947464046012A0AD00126F84A84F898
:10218000586041B1296A012905D0A36EEBB129E05D
:102190000220BDE8F88F6868092838D1A96A4FF491
:1021A000785041B12B6801F07C0100EA53400843AC
:1021B000E96A084302E0296800EA51402168CB6CD3
:1021C00013400343CB64606621E0C4E91971A96A36
:1021D000286A31B101F07C01401E0843E96A0843D6
:1021E00000E0401E29682B79C1F3846103F01F03CE
:1021F00099400143A06E401EA066636E43EA01034E
:10220000636604D12068C16C11401943C164206821
:1022100002F0D4FF58B995F8250098B12068C1683C
:1022200095F8262021F4401141EA4251C16020680E
:1022300002F0CCFF8246206802F0C0FF5AEA00009C
:102240000DD0FBE095F8260095F82410400540EAF3
:1022500001512068C26822F440121143E6E7A86ADF
:1022600030B1E86A20B195F8250001285ED003E07E
:1022700095F82500012804D02068C16821F000717C
:1022800003E02068C16841F00071C16095F830003A
:10229000012852D02068016921F002010161AA6879
:1022A00029682068B2F1004F38D002F0AAFF2068F8
:1022B000416921F00041416120686969C268C2F347
:1022C000C102520091402A69042A44D000EB8200E6
:1022D0002B68026EDFF88CC203F0F84302EA0C02AE
:1022E0000B431A4342F00041016620682A69A9693C
:1022F00000EB8200026E22F080720A430266297FA0
:1023000022682869012923D05FF0000102EB8000D8
:10231000026E22F000720A4302668FE0002202F091
:1023200070FF2068416941F00041C4E7E06D40F072
:102330002000E0654FF00108A8E7D5E90D10014342
:102340002068026922F4FF7242F002021143A5E7FD
:102350004FF00071DAE7002102F026FF4003206809
:102360004FF0000172D002F01FFF90FAA0F0B0FA17
:1023700080F1286842036ED090FAA0F0B0FA80F0A5
:10238000814204D100221146206802F051FF012150
:10239000206802F009FF400320684FF001015DD082
:1023A00002F002FF90FAA0F0B0FA80F12868420330
:1023B00059D090FAA0F0B0FA80F0814204D1002206
:1023C0000121206802F034FF0221206802F0ECFEB7
:1023D000400320684FF0020148D002F0E5FE90FA79
:1023E000A0F0B0FA80F12868420344D090FAA0F03F
:1023F000B0FA80F0814204D100220221206802F06C
:1024000017FF0321206802F0CFFE400320684FF041
:10241000030133D002F0C8FE90FAA0F0B0FA80F1C8
:10242000286842032FD090FAA0F0B0FA80F08142E1
:1024300004D100220321206802F0FAFE206881689E
:1024400011F0010F22D0B6E000E004E002F0ACFE93
:10245000C0F384618DE7C0F3846091E702F0A4FECD
:10246000C0F38461A2E7C0F38460A6E702F09CFE9B
:10247000C0F38461B7E7C0F38460BBE702F094FE69
:10248000C0F38461CCE7C0F38460D0E72A7B29687D
:1024900050F8B03FC1F3120C23EA0C0302F0180C01
:1024A000314A22FA0CF20A4013430360E9684945B5
:1024B0007ED1286841031CD090FAA0F1B1FA81F1D5
:1024C000491C01F01F0109294FEA403132D8002987
:1024D00012D000BF90FAA0F1B1FA81F101F101012F
:1024E00001F01F0106FA01F609D100BFC0F38461B3
:1024F00009E0C0F38461E3E7C0F38461EEE790FA9A
:10250000A0F1B1FA81F101F1010101F01F0146EAE8
:10251000816102D1C0F3846003E090FAA0F0B0FAC8
:1025200080F000F1010000F01F0000EB400041EAE4
:1025300000513AE000290ED090FAA0F1B1FA81F1F1
:1025400001F1010101F01F0106FA01F60ED100BFF1
:10255000C0F384610EE0C0F38461F1E700007F40C6
:102560000040100400F0FF03FFFF070090FAA0F105
:10257000B1FA81F101F1010101F01F0146EA816127
:1025800002D1C0F3846003E090FAA0F0B0FA80F0CA
:1025900000F1010000F01F002B4A00EB400002EBAD
:1025A000005041EA000141F00071AA68206800E093
:1025B00001E002F026FE25482A68024240D0244865
:1025C0008168244B01F0E0719A4202D0224B9A427A
:1025D0001BD10B0219D42268B2F1A04F30D182680E
:1025E00041F4000122F0E0720A4382601B481C495A
:1025F0000068B0FBF1F0801C00EB4000800000E0C0
:10260000401E00900028FBD11AE0164D164BAA423E
:1026100007D1CD0105D422689A4211D041F08071D2
:1026200009E0124DAA420BD14A0209D422689A420B
:1026300006D041F48001826822F0E0720A43826091
:1026400084F858704046A4E5000020FE0000088091
:1026500000030050000021C31000C0901C000020A7
:10266000400D0300000052C700010050000084CB61
:1026700002498968002900D00847704700000020FF
:102680000068A1F580710F390ED0B1F5837F08D0B5
:10269000B1F5037F02D0D0F880007047D0F88C00ED
:1026A0007047D0F888007047D0F8840070477047B2
:1026B0002DE9F04104463548806800F01F05206888
:1026C00002F07CFD08BB2168C868C96C00F00040BE
:1026D00011F4C07F00D190B194F85800012814D0B3
:1026E000012084F858002046FFF7EAFB02004FF073
:1026F00000030CD084F858301046BDE8F081E06D3E
:1027000040F02000E0650120F7E70220F5E7E06DEA
:10271000C00504D5206E20F00800206600E0236686
:10272000E06D42F20101884340F48050E065184FAB
:1027300021684FF0A046B94201D1304600E008467A
:10274000884200D01DB9E06D20F48010E065602063
:10275000086084F858302068B84200D006468642A7
:1027600009D045B1062D06D0072D04D0E06D40F408
:102770008010E065C0E7C16811F0007FBCD18168BE
:10278000044B194041F008018160B5E70003005097
:1027900000010050C0FFFF7F704770472DE9F84FE0
:1027A00000270446009790F85800DFF8E0930D46A4
:1027B000B846012811D0012684F85860206802F03C
:1027C00001FD60B1E06D40F02000E0655FF00107C1
:1027D00084F858803846BDE8F88F0220FBE7D5E939
:1027E00000210C23206803EA91131844036B01F0C5
:1027F0001F014FF01F0C0CFA01FCC2F3846223EAA4
:102800000C038A4013430363206802F0DBFC82461A
:10281000206802F0CFFC5AEA00003CD1AA6829687F
:102820002068B2F1004F37D002F0DCFC206841692B
:1028300021F00041416120686969C268C2F3C102A8
:10284000520091402A69042A31D000EB82002B68A3
:10285000026EDFF83CC303F0F84302EA0C020B43BC
:102860001A4342F00041016620682A69A96900EB19
:102870008200026E22F080720A430266297F22687B
:102880002869012910D0002102EB8000026E22F09D
:1028900000720A4302667DE0002202F0A3FC206879
:1028A000416941F00041C5E74FF00071ECE70021BC
:1028B00002F074FC400320684FF0000172D002F077
:1028C0006DFC90FAA0F0B0FA80F1286842036ED057
:1028D00090FAA0F0B0FA80F0814204D100221146B3
:1028E000206802F09DFC0121206802F057FC4003A3
:1028F00020684FF001015DD002F050FC90FAA0F08A
:10290000B0FA80F12868420359D090FAA0F0B0FAEA
:1029100080F0814204D100220121206802F080FC75
:102920000221206802F03AFC400320684FF00201C7
:1029300048D002F033FC90FAA0F0B0FA80F1286899
:10294000420344D090FAA0F0B0FA80F0814204D162
:1029500000220221206802F063FC0321206802F0BB
:102960001DFC400320684FF0030133D002F016FC39
:1029700090FAA0F0B0FA80F1286842032FD090FAC4
:10298000A0F0B0FA80F0814204D100220321206837
:1029900002F046FC2068816811F0010F22D0ACE003
:1029A00000E004E002F0FAFBC0F384618DE7C0F3BD
:1029B000846091E702F0F2FBC0F38461A2E7C0F308
:1029C0008460A6E702F0EAFBC0F38461B7E7C0F3D6
:1029D0008460BBE702F0E2FBC0F38461CCE7C0F3A4
:1029E0008460D0E72A7B296850F8B03FC1F3120C0D
:1029F00023EA0C0302F0180C664A22FA0CF20A4091
:102A000013430360E968494577D1286841031CD026
:102A100090FAA0F1B1FA81F1491C01F01F010929D6
:102A20004FEA403132D8002912D000BF90FAA0F10D
:102A3000B1FA81F101F1010101F01F0106FA01F67D
:102A400009D100BFC0F3846109E0C0F38461E3E70A
:102A5000C0F38461EEE790FAA0F1B1FA81F101F1DF
:102A6000010101F01F0146EA816102D1C0F38460D7
:102A700003E090FAA0F0B0FA80F000F1010000F05D
:102A80001F0000EB400041EA005132E000290ED067
:102A900090FAA0F1B1FA81F101F1010101F01F01F9
:102AA00006FA01F606D100BFC0F3846106E0C0F368
:102AB0008461F1E790FAA0F1B1FA81F101F101012D
:102AC00001F01F0146EA816102D1C0F3846003E096
:102AD00090FAA0F0B0FA80F000F1010000F01F00C1
:102AE0002D4A00EB400002EB005041EA000141F0AA
:102AF0000071AA68206802F075FB28482A68024223
:102B00003FF466AE26488168264B01F0E0719A4298
:102B100002D0254B9A421CD10B021AD42268B2F182
:102B2000A04F7FF455AE826841F4000122F0E072BC
:102B30000A4382601D481E490068B0FBF1F0401C4A
:102B400000EB4000800000E0401E00900028FBD118
:102B50003EE6184D184BAA4207D1CD0105D4226894
:102B60009A42F5D041F0807109E0144DAA42EFD1AC
:102B70004A02EDD422689A42EAD041F48001826888
:102B800022F0E0720A43826022E6000000007F40EB
:102B900000F0FF03FFFF0700000020FE0000088098
:102BA00000030050000021C31000C0901C00002052
:102BB000400D0300000052C700010050000084CB0C
:102BC000704770472DE9F05F044600680668456865
:102BD000DFF854B2DBF8080000F01F07B0070ED58D
:102BE000A8070CD5E06DC00603D4E06D40F400608A
:102BF000E0652046FFF7AEFA216802200860DFF8A2
:102C00002CA270074FF0A04801D5680703D4300705
:102C100037D5280735D5E06DC00603D4E06D40F404
:102C20000070E065206802F0D5FA20B320685045B6
:102C300001D1424600E00246824208D03FB1052F52
:102C400005D0092F03D0504503D1414602E0C168A9
:102C500001E00146C96889040DD4016809070AD555
:102C600002F0B0FA58B3E06D40F01000E065206E5D
:102C700040F0010020662046FFF7A2FF21680C20EB
:102C80000860B00601D5A80603D4700658D56806BA
:102C900056D5E06DC00603D4E06D40F40050E06509
:102CA0002068C16C11F4C07F1AD00021894602F05F
:102CB00091FA02462068504514D1434613E020683B
:102CC000416821F00C014160E06D20F48070E06506
:102CD000E06DC004CFD4E06D40F00100E065CAE7CC
:102CE0000121E3E70346834208D03FB1062F05D018
:102CF000072F03D0504503D1414602E0C16801E0EF
:102D00000146C968B9F1000F14D08B0102D58AB110
:102D10008A040FD4026852060CD589020AD402F044
:102D200049FAE8B3E06D40F01000E065206E40F035
:102D3000010020662046FFF79BFC216860200860A8
:102D400030060BD5280609D5E06D40F48030E065EB
:102D5000204600F067F9216880200860F0050CD556
:102D6000E8050AD5E06D40F40030E0652046FFF745
:102D700013FD21684FF480700860B0050CD5A805DC
:102D80000AD5E06D40F48020E0652046FFF705FDA0
:102D900021684FF400700860F0062ED5E80600E0C8
:102DA00008E02AD5E06BD0B1AFB1DBF8080000F441
:102DB000604013E02068416821F060014160E06DEF
:102DC00020F48050E065E06DC005B3D4E06D40F0C4
:102DD0000100E065AEE72068C068C00750B1E06D53
:102DE00040F48060E065206E40F0020020662046DE
:102DF000FFF7E7FE216810200860700512D568050E
:102E000010D5E06D40F48040E065206E40F0080091
:102E1000206621684FF4806008602046BDE8F05FBE
:102E2000FFF745BCBDE8F09F0003005000010050D3
:102E3000F8B54FF0000504002E46009502D0E06D75
:102E400010B107E00120F8BD204600F0EDF826663D
:102E500084F8586020688168C1F3407119B18168B5
:102E6000684A1140816020688168C1F3007189B9A6
:102E70008168654A114041F080518160634864492E
:102E80000068B0FBF1F04000801C00E0401E0090A4
:102E90000028FBD120688168C1F3007141B9E16D60
:102EA00041F01001E165216E41F00101216601252B
:102EB00002F088F9E16DC90600D430B1E06D40F050
:102EC0001000E06501252846F8BDE06D20F4807013
:102ED00040F00200E0652068806810F0010F11D119
:102EE0004FF0A04080684B4900F00100896801F074
:102EF0000101084306D148486168826822F47C12C7
:102F00000A438260E168E06B627F0843A16841EA9E
:102F10004231084394F8241040EA0140012904D1C9
:102F2000218D3E4A02EB41410843E16A29B101F497
:102F30007871226B014342EA01002268D168384B64
:102F400019400143D16020680169626B21F0406142
:102F500011430161206802F02DF970BB207F94F8C5
:102F60003810800340EA41022168C86844F2020335
:102F700098431043C86020690028206801690AD07E
:102F800041F480310161206850F8C01F22696FF35D
:102F90000D01114307E021F480310161206850F8F0
:102FA000C01F6FF30D01016094F8400001280CD0A0
:102FB0002068016921F00101016160690128206830
:102FC000016B21F00F0111D013E0D4E91101084386
:102FD000D4E913121143084321680A6940F2FC73D3
:102FE0009A43104340F001000861E6E7226A521E4E
:102FF00011430163E06D20F0020040F00100E06544
:1030000061E70000C0FFFF5FC0FFFF7F1C000020E2
:10301000400D030000010050000300500000FEFFBF
:103020000740F0FF7047000010B598B00446142127
:1030300011A8FDF729FA44216846FDF725FA1A4937
:10304000206888422DD1C001009080030F9068460F
:1030500000F0BEFC08B1FFF731F81448C16C41F430
:103060000051C164C16C01F400511691C16C41F072
:103070000101C164C06C11A900F001001690E020AC
:10308000119003201290002013904FF0904000F018
:1030900077FA00221146122000F002FC122000F004
:1030A000F1FB18B010BD00000001005000100240FC
:1030B0002DE9F04790460D4604004FF0000A0FD06E
:1030C00075B1607901280ED04FF0010984F80590A0
:1030D00002202071A96808F01006042905D04AE0F2
:1030E0000120BDE8F0870220FBE700F073FB0746F4
:1030F0005FEA08004FF0030809D022E000F06AFB05
:10310000C01B012803D92068406B000411D420683B
:10311000406B0004F2D42168686A086418E000BFBC
:1031200000F058FBC01B01280BD92068406B002819
:1031300007DA206940F00800206184F80480032049
:10314000CFE72068406B0028EADB2168686A4864A2
:103150002068816C40F2FF32B2409143AA6AB240CB
:10316000114381642068C16CFF22B2409143EA6A36
:10317000B2401143C164E869012808D12268916B0B
:103180001F20B0408143286AB04008439063206804
:10319000C06B0721B1408843A969012903D00229E6
:1031A00057D06969F1B300216B69AA681A430A43D1
:1031B0004FF4807101FA06F398432B79012B00D06C
:1031C000002111434FF4007202FA06F398436B7921
:1031D000012B00D0002220F44047286842EA010871
:1031E000022838D057EA0007216808FA06F0384369
:1031F000C863206801684FF48042B2409143016087
:103200002268116840F6FE70B0408143E868B04023
:103210000843106020680168C022B24091430160F9
:10322000287B00E015E0297CC0F3830001F03C011D
:1032300040EA811021680A6E40F60F73B3409A434A
:10324000B04002430A6684F8049000206071504642
:1032500047E70121A8E700F0EDFD0649884202D9C1
:1032600047F40047C0E704498842BDD947F4804786
:10327000BAE700000068890900B4C40470B504000E
:1032800003D02079002510B105E0012070BD6571E3
:10329000204600F007F802202071256101202071EE
:1032A000002070BD10B586B0044614216846FDF7B5
:1032B000EBF81149206888421BD11048C16C41F4D9
:1032C0008031C164C16C01F480310591C16C41F061
:1032D0000101C164C06C694600F001000590102036
:1032E000009003200190002002904FF0904000F0E9
:1032F00047F906B010BD0000000800500010024061
:103300002DE9F041040006D0DFF8E88194F85C0074
:10331000002518B107E00120BDE8F08184F85D5078
:10332000204600F0EFF82068816921F010018161EA
:1033300000F050FA0646032705E000BF00F04AFA05
:10334000801B0A2811D8206880690007F6D42068FD
:10335000816941F00101816100F03CFA06460BE011
:1033600000F038FA801B0A2806D9206E40F00100D0
:10337000206684F85C70CEE720688069C007EFD0D3
:103380002068816941F0020181612168414502D1D3
:10339000594960680860207C01282068816937D01D
:1033A00041F040018161607C01282068816932D050
:1033B00021F480418161A07C0128206881692DD0A1
:1033C00041F48051816120688169A26821F44071D3
:1033D000114381612068816921F0A4018161206825
:1033E000016921F010010161E068012819D010B3D2
:1033F00002281BD02068816941F08001816120682A
:10340000016941F010010161E06803280ED012E06B
:1034100021F04001C6E741F48041CBE721F480511F
:10342000D0E72068816941F0040103E020688169E8
:1034300041F020018161207EE26940066FF0FF01CA
:1034400001EB0222A0F100701043226AA38A521EEF
:1034500010430A0202EB034318432368D861A068B3
:10346000B0F5407F10D1D4E90A0301EB0321401EDF
:103470000843216B131303EB01110843A18C02EBEA
:10348000014108432168C860206850F8C01FE26B02
:103490001143016019482064216851F8802FA38EE0
:1034A00022F4F81242EA03420A601449703161645E
:1034B000216851F8802F94F8383022F0706242EA87
:1034C00003620A600D49B031A1640D49E1640C4901
:1034D000D83121650A49F031616500F5547120C089
:1034E0008842FCD3A5652566012084F85C00002095
:1034F00012E70000006400400065004000A40040A6
:1035000088A5004010B598B00446142111A8FCF716
:10351000BBFF44216846FCF7B7FF17492068884283
:1035200028D18014009040030C90684600F050FAB7
:1035300008B1FEF7C3FD1148816D41F0007181654E
:10354000816D01F000711691C16C41F00101C164FF
:10355000C06C11A900F0010016904FF4C0501190FA
:103560000220129000201390149009201590C0069C
:1035700000F006F818B010BD0064004000100240D2
:103580002DE9F04FDFF82092002301260324A9F152
:10359000040B85B00F2709F1040AABF1040EFAE021
:1035A00006FA03F52A407CD091F804C00CF0030C15
:1035B000BCF1010F02D0BCF1020F26D1D0F808C037
:1035C000CDF800C04FEA430C04FA0CF8CDF810C057
:1035D000DDF800C02CEA080CCDF800C0D1F80C8052
:1035E000DDF810C008FA0CF8DDF800C048EA0C0855
:1035F000C0F80880D0F804C02CEA050C0D79C5F39A
:1036000000159D4045EA0C0545600D79ED43AD0779
:103610000ED0C5684FEA430804FA08FC25EA0C05F9
:10362000D1F808C00CFA08FC4CEA050CC0F80CC034
:103630000D7905F00305022D16D1DD0800EB850C90
:10364000CDF808C0DCF820805D074FEAD56C07FA9A
:103650000CF528EA05080D6905FA0CF5DDF808C037
:1036600045EA0805CCF8205005684FEA430CCDF830
:1036700008C004FA0CFC25EA0C0591F804C00CF013
:103680000308DDF808C008FA0CF848EA0508C0F895
:1036900000804D6815F4403F7CD0444DD5F860C0A3
:1036A00000E077E04CF0010CC5F860C02D6E23F00F
:1036B000030C05F0010500953D4D65440295AD688C
:1036C0004FEA837C4FEA1C7807FA08FC25EA0C05D0
:1036D000B0F1904F06D0DFF8DCC0604505D14FF067
:1036E000010C20E04FF0000C1DE0DFF8CCC060457D
:1036F00002D14FF0020C16E0DFF8C0C0604502D1E5
:103700004FF0030C0FE0DFF8B8C0604502D14FF076
:10371000040C08E0DFF8ACC0604502D14FF0050CA6
:1037200001E04FF0060C0CFA08FC4CEA050C029D77
:10373000C5F808C0D9F80050CC46D1F804809543AC
:103740005FEAC82800D51543CCF80050DAF80050DD
:10375000D446D1F8048095435FEA882800D5154304
:10376000CCF80050DBF80050DC46D1F804809543DB
:103770005FEA883800D51543CCF80050DEF80050D9
:10378000F446D1F8048095435FEAC83800D5154364
:10379000CCF800505B1C0A6832FA03F57FF400AFE6
:1037A00005B0BDE8F08F00000804014000100240A1
:1037B000000001400004004800080048000C0048D8
:1037C00000100048001400480AB18161704781620E
:1037D000704700000148806870470000100000201A
:1037E00002488168426811448160704710000020DF
:1037F00010B50024032000F073F80F2000F008F843
:1038000008B1012401E000F025F8204610BD0000B9
:1038100070B50E4E05460024706898B14FF47A7169
:10382000B1FBF0F00A490968B1FBF0F000F020FEAE
:1038300040B9102D06D200222946501E00F030F863
:10384000356000E00124204670BD0000100000201B
:103850001C0000200A4882B0016E41F0010101669F
:10386000016E01F001010091816D41F0805181658F
:10387000806D00F08050009002B000F0A1B8000010
:1038800000100240002809DB00F01F0201219140D6
:103890004009800000F1E020C0F8001170470000EE
:1038A000F0B40E4B1B680C46C3F30223C3F10705AB
:1038B000042D00D90425191D072901D2002300E099
:1038C000DB1E012606FA05F1491E214099409E4063
:1038D000761E16403143F0BC02F021BC0CED00E036
:1038E000064900F0070208684FF6FF03184040EA57
:1038F0000220034A10430860704700000CED00E00E
:103900000000FA052B492C4B0A6832214A432B4907
:1039100040B1B0F5007F086829D020F4C06040F4C1
:1039200080602CE00868C0F34120022804D051F8E0
:10393000800F20F4807022E0D1F8800020F48070A5
:10394000C1F88000086820F4C06040F4007008608E
:10395000B2FBF3F0401C00E0401E4A69520501D55D
:103960000028F9D1486940050AD503207047C0F303
:103970004120022806D051F8800F40F48070086082
:1039800000207047D1F8800040F48070C1F88000BA
:10399000086820F4C06040F400700860B2FBF3F0E7
:1039A000401C00E0401E4A695205DBD50028F9D1D1
:1039B000D8E700001C00002040420F0000700040CB
:1039C0000248816841F48041816070470070004086
:1039D0002DE9F8430446006800269D4D00035ED59E
:1039E000A86D0027C00008D4A86D40F08050A865DD
:1039F000A86D012700F080500090DFF85892D9F8A8
:103A0000001041F48071C9F80010FFF7E3FE804612
:103A100006E000BFFFF7DEFEA0EB080002282BD86F
:103A2000D9F80000C005F5D5D5F8900010F4407025
:103A300014D0216C814211D0D5F89000D5F89010A7
:103A400020F4407041F48031C5F89010D5F8901002
:103A500021F48031C5F89010C5F89000C00711D04E
:103A6000FFF7B8FE804641F2883907E0FFF7B2FE63
:103A7000A0EB0801494501D903260BE0D5F89000D9
:103A80008007F3D5D5F89000216C20F440700843EE
:103A9000C5F890001FB1A86D20F08050A86520786F
:103AA000C00707D0D5F88800616820F003000843FC
:103AB000C5F888002078800707D5D5F88800A16868
:103AC00020F00C000843C5F888002078400707D58F
:103AD000D5F88800E16820F030000843C5F8880078
:103AE0002078000707D5D5F88800216920F0C000AC
:103AF0000843C5F888002078800607D5D5F88800E7
:103B0000616920F440600843C5F8880020784006C9
:103B100007D5D5F88800A16920F440500843C5F8BE
:103B200088002078000607D5D5F88800E16920F4E0
:103B300040400843C5F888002088C00507D5D5F85F
:103B40008800216A20F440300843C5F888002088A6
:103B5000800507D5D5F88800616A20F44020084325
:103B6000C5F88800208840050FD5D5F88800A16ADF
:103B700020F440100843C5F88800A06AB0F5801F03
:103B800003D1E86840F48010E860208800050FD574
:103B9000D5F88800E16A20F440000843C5F88800A1
:103BA000E06AB0F5800F03D1E86840F48010E86067
:103BB0002088C0040FD5D5F88800216B20F0407014
:103BC0000843C5F88800206BB0F1807F03D1E86816
:103BD00040F48010E86020884FF0006180040ED52A
:103BE000D5F88800626B20F040601043C5F888006B
:103BF000606B884203D1E86840F48010E860208858
:103C000040040ED5D5F88800A26B20F04060104328
:103C1000C5F88800A06B884203D1E86840F48010A2
:103C2000E860208800040FD5D5F88800E16B20F00B
:103C300040500843C5F88800E06BB0F1805F03D1C5
:103C4000E86840F48030E8603046BDE8F883000062
:103C500000100240007000402DE9F0470E460500BC
:103C60004FF0000725D0DFF8AC81D8F8000000F055
:103C70000F00B0420CD2D8F8001021F00F013143F0
:103C8000C8F80010D8F8000000F00F00B04210D1C2
:103C90002968614CC80741F2883A5AD06868DFF851
:103CA0007C91032808D0022820682DD040050028E8
:103CB0002CDB0120BDE8F08720688001F9D5E068A1
:103CC00000F00302E068C0F30310401C032A19D07F
:103CD000534A00BFB2FBF0F0E268C2F30622504341
:103CE000E268C2F34162521C5200B0FBF2F0484558
:103CF00017D9A06810F0F00F0CD0880711D5A8686C
:103D000040B10EE0474AE5E78003D0E700F0BCF899
:103D1000484506D9A06820F0F00040F08000A0607F
:103D20008027A068696820F003000843A060FFF7BF
:103D300051FD814606E000BFFFF74CFDA0EB0901F5
:103D400051453AD8A068696800F00C00B0EB810FCB
:103D5000F2D12868810714D5400703D5A06840F444
:103D6000E060A0602878000705D5A06820F46050C6
:103D700040F4E060A060A068A96820F0F00008436B
:103D800004E0802F03D1A06820F0F000A060D8F8F4
:103D90000010404601F00F01B14216D9016821F030
:103DA0000F0131430160FFF715FD074607E000BF33
:103DB000FFF710FDC11B514501D903207AE7D8F860
:103DC000000000F00F00B042F2D12878400705D57E
:103DD000A068E96820F4E0600843A0602878000744
:103DE00006D5A068296920F4605040EAC100A060AF
:103DF00000F04AF8A1680C4AC1F30311515C01F0CC
:103E00001F01C8400949086009480068BDE8F0473B
:103E1000FFF7FEBC002002400010024000B4C404C2
:103E20000024F40000127A00A27B00081C0000208D
:103E30001000002001480068704700001C000020AE
:103E40000548064900688968054AC1F30221515CAA
:103E500001F01F01C84070471C0000200010024004
:103E6000B27B00080548064900688968054AC1F325
:103E7000C221515C01F01F01C84070471C000020A6
:103E800000100240B27B0008184910B58868C0F3E2
:103E900081021748012A0BD08A684310C2F38102BD
:103EA000022A06D08A68C2F38102032A03D00020C6
:103EB00010BD184610BDCA6802F00304CA68C2F3F8
:103EC0000312521C032C02D0B0FBF2F001E0B3FB52
:103ED000F2F0CA68C968C2F306225043C1F34161D7
:103EE000491C4900B0FBF1F010BD00000010024079
:103EF0000024F4002DE9F84304007AD02078F84D2E
:103F0000C00747D0A868E96800F00C0001F0030181
:103F10000C2802D0082817D001E0032914D06068CB
:103F2000B0F5803F17D0B0F5A02F286817D020F447
:103F300080302860286820F4802028606068E0B124
:103F4000FFF748FC064614E02868800322D5606825
:103F50000028D2D01EE0286840F48030EDE740F41D
:103F600080202860F7E700BFFFF734FC801B64283F
:103F700070D828688003F7D50CE0FFF72BFC0646C5
:103F800005E000BFFFF726FC801B6428F0D82868F6
:103F90008003F7D4207880074CD5A868E96800F042
:103FA0000C0001F003010C2802D004280DD001E020
:103FB00002290AD0E068002828682BD040F48070DD
:103FC0002860FFF707FC064619E02868400502D57F
:103FD000E068002891D06868217C20F0FE4040EA2B
:103FE00001606860BF480068FFF712FC002800D13C
:103FF00020E072E1FFF7EEFB801B0228B8D82868AA
:104000004005F7D56868217C20F0FE4040EA016059
:1040100068600FE020F480702860FFF7DBFB064645
:1040200005E000BFFFF7D6FB801B0228A0D8286858
:104030004005F7D42078000729D560690028D5F815
:10404000940013D040F00100C5F89400FFF7C2FBC4
:10405000064606E090E000BFFFF7BCFB801B02288D
:1040600086D8D5F894008007F6D510E020F001003E
:10407000C5F89400FFF7AEFB064604E0FFF7AAFB85
:10408000801B022878D8D5F894008007F6D42078D1
:10409000400761D5A86D0026C00008D4A86D40F087
:1040A0008050A865A86D012600F0805000908E48D1
:1040B0000168C90511D40168804641F4807101602E
:1040C000FFF788FB074604E0FFF784FBC01B0228CC
:1040D00052D8D8F80000C005F6D5A068012815D040
:1040E0000528D5F8900016D020F00100C5F8900002
:1040F000D5F8900020F00400C5F89000A06841F2C7
:104100008838B8B1FFF766FB07460EE0D5F8900097
:1041100040F00100F0E740F00400C5F89000F5E73A
:10412000FFF758FBC11B414526D8D5F89000800702
:10413000F6D50CE0FFF74EFB074604E0FFF74AFB1D
:10414000C11B414518D8D5F890008007F6D41EB1A0
:10415000A86D20F08050A8652078800629D5A06938
:104160000028D5F8980013D040F00100C5F8980059
:10417000FFF730FB064606E075E000BFFFF72AFBBD
:10418000801B02286FD8D5F898008007F6D510E07C
:1041900020F00100C5F89800FFF71CFB064604E07C
:1041A000FFF718FB801B02285DD8D5F89800800720
:1041B000F6D4E069F0B3A968C1F3810103295DD0A9
:1041C0000228286820F08070286003D0FFF702FBE7
:1041D00004464BE0FFF7FEFA064604E0FFF7FAFA62
:1041E000801B02283FD828688001F7D4F4E9080131
:1041F0006FF00F0202EB01110843218A52044908B3
:1042000002EB4151A26841EA02210843217D4FF0AF
:104210007E42490802EB41610843217B40EAC160CC
:10422000E968324A11400843E860286840F080702D
:10423000286000E05EE0E86840F08070E860FFF72A
:10424000C9FA044605E000BFFFF7C4FA001B0228C4
:1042500009D828688001F7D54CE000BFFFF7BAFA0B
:10426000001B022802D90320BDE8F88328688001DA
:10427000F4D4E8681E490840E8603BE00128F3D028
:10428000E868226A00F00301914226D1616A00F0D9
:10429000F0020901103991421FD1A26A00F4FE41D7
:1042A000B1EB022F19D194F82C2000F07841B1EB3A
:1042B000C26F12D1218E00F4C00249084905A1F550
:1042C0000011914209D194F8341000F0C0604908FF
:1042D0004906A1F1007181420CD00120C4E7000021
:1042E0000010024010000020007000400C809F0170
:1042F000FCFFEEFE0020B7E770B5040009D0606A4D
:10430000002540B125616561A56294F85D0040B16A
:104310000CE0012070BD6068B0F5827FF4D0E561EB
:10432000F2E784F85C50204600F05CF8022084F844
:104330005D002068016821F040010160E1684FF4F0
:10434000E062914201D9002001E04FF48050B1F5C4
:10435000706F02D0914200D0A562A188228901F439
:10436000827102F404421143227C02F002021143E2
:10437000227D02F001021143228B02F400721143EC
:10438000227F02F03802114394F8202002F08002CC
:104390001143228D02F40052114322681160A16979
:1043A000042202EA114194F8242000F4805002F023
:1043B0001002114394F8342002F008021143A2893C
:1043C00002F4706211430143206841602068C169B2
:1043D00021F40061C1612566012084F85D000020A0
:1043E00070BD000070B586B0044614216846FCF725
:1043F0004BF81C492068884231D11B48816D41F43B
:1044000000418165816D01F400410591C16C41F06D
:104410000101C164C16C01F001010591C16C41F061
:104420000401C164C06C022500F0040005904FF443
:10443000004000900024CDE901540626CDE9034652
:1044400069464FF09040FFF79BF870020090CDE96D
:104450000154CDE9034669460448FFF791F806B0D8
:1044600070BD0000003C0040001002400008004801
:1044700010B5401EB0F1807F01D3012010BD4FF078
:10448000E02460610F21601701F049FE0020A06167
:1044900007202061002010BD704770477047000062
:1044A00030B590F83C20012A42D0012280F83C200F
:1044B000CA688B6822F440721A434B6822F4806207
:1044C0001A430B6822F400621A430B6922F48052EB
:1044D0001A434B6922F400521A430B6B22F48042B8
:1044E0001A430B8B22F4702242EA0342CB6922F07A
:1044F00080521A430F4D03680024AB4202D00E4D88
:10450000AB4210D10D8D22F4700242EA05520D6AC1
:1045100022F080722A434D6A22F000722A43C96A4F
:1045200022F000520A435A6480F83C40002030BD1B
:10453000022030BD002C014000340140704770471C
:1045400070470000F0B590F83C20012A3AD00125D0
:1045500080F83C50022280F83D2003685A689C682D
:10456000194E1A4FB34201D0BB4204D122F4700C51
:104570004A6842EA0C02DFF858C002EA0C02D1F89D
:1045800000C04CEA020CC3F804C00268B2420DD06D
:10459000B2F1804F0AD00F4B9A4207D00E4B9A428D
:1045A00004D0BA4202D00D4B9A4204D1896824F05B
:1045B00080031943916080F83D50002180F83C1041
:1045C0000846F0BD0220F0BD002C0140003401403F
:1045D0008FFFFFFD00040040000800400040014044
:1045E00010B50446022249B104290ED0082913D07F
:1045F00094F84700012816D0012010BD94F844001B
:104600000128F9D184F844200FE094F845000128EE
:10461000F2D184F8452008E094F846000128EBD157
:1046200084F8462001E084F847200422206801F045
:10463000F8F82068416C41F4004141641049206859
:1046400088420ED0B0F1804F0BD00E49884208D07E
:104650000D49884205D00D49884202D00C49884254
:1046600007D181680B4A1140062906D0B1F5803F79
:1046700003D0016841F001010160002010BD00007D
:10468000002C0140000400400008004000340140BC
:104690000040014007000100704710B5040003D03E
:1046A00094F83D0010B107E0012010BD002084F80F
:1046B0003C00204600F022F8022084F83D00211D35
:1046C000206801F043F8012084F8480084F83E0097
:1046D00084F83F0084F8400084F8410084F84200E8
:1046E00084F8430084F8440084F8450084F84600C8
:1046F00084F8470084F83D00002010BD08B500682C
:10470000174988422AD11748016E41F400610166B9
:10471000006E002200F40060009011461820FFF7A0
:10472000BFF81820FFF7AEF8002211461920FFF756
:10473000B7F81920FFF7A6F8002211461A20FFF754
:10474000AFF81A20FFF79EF8002211461B20FFF752
:10475000A7F8BDE808401B20FFF794B808BD00008B
:10476000002C01400010024090F83D10012901D0BA
:1047700001207047022180F83D1000680F498842EF
:104780000ED0B0F1804F0BD00D49884208D00D49B2
:10479000884205D00C49884202D00C49884207D192
:1047A00081680B4A1140062906D0B1F5803F03D03D
:1047B000016841F00101016000207047002C0140B8
:1047C0000004004000080040003401400040014067
:1047D0000700010070B5044690F83C000025012850
:1047E00014D0012684F83C60022084F83D00226841
:1047F0009068364B184020F47F409060086870281D
:104800002ED010DC10F00F0F03D021E04FF002008B
:1048100070BD4FEA2012072A1AD2DFE802F0525286
:1048200052524A3840002A4BC21A984249D009DCF9
:10483000B0F5805F0DD0B0F5005F1CD0B0F1101F57
:1048400006D13EE0102A3CD0202A3AD0502A38D057
:10485000012584F83D60002084F83C00284670BDA6
:10486000CB68D1E90121206800F0E8FF2068816869
:1048700041F0770109E0CB68D1E90121206800F01F
:10488000DDFF2068816841F480418160E1E7CA680A
:104890004968206801F07CF95021206806E0CA6868
:1048A0004968206801F085F96021206800F0D0FF98
:1048B000CFE7CA684968206801F06AF9402120689A
:1048C000F4E7226801461046F0E7000088FFCEFFBB
:1048D000200010002DE9F0410D46040003D094F8AB
:1048E0003D0018B108E00120BDE8F081002084F807
:1048F0003C00204600F042F8022084F83D00206889
:1049000081681D4A11408160211D206800F01EFF52
:10491000226890689169166A2B68AF69034340F278
:104920000330814341EA0721A868EF6908434FF645
:10493000FC418843E96840EA0720014328692F6A5F
:10494000000140EA0730084369686D6926F0AA064D
:1049500046EA0515294393602268906154F8480B94
:104960000162012004F81F096075A075E0762077C8
:1049700020750020B8E70000F8BFFEFF10B586B034
:10498000044614216846FBF77FFD114920688842E0
:104990001CD11048816D41F002018165816D01F0EB
:1049A00002010591C16C41F00201C164C06C00219B
:1049B00000F002000590302000900220CDE90101B6
:1049C000CDE9031069460448FEF7DAFD06B010BDD4
:1049D00000040040001002400004004870B590F848
:1049E0003E60044690F83F5090F8443090F84520DF
:1049F000022021B104290ED0012E1BD114E0012E7A
:104A000018D1012B16D184F83E0084F8440001220D
:104A10000021206820E0012D0CD1012A0AD184F860
:104A20003F0084F8450014E0012D03D1012B01D192
:104A3000012A01D0012070BD84F83E0084F83F00B7
:104A400084F8440084F8450001220021206800F029
:104A5000DBFE01220421206800F0D6FE20680168F8
:104A600041F001010160002070BD70472DE9F04167
:104A700004460068C66805694FF00007A90713D50A
:104A8000B10711D5F91E01610120207720688069E6
:104A90008007204602D0FFF7E8FF04E000F002F9AB
:104AA000204600F0C4F92777680716D5700714D59B
:104AB00021686FF004000861022020772068806977
:104AC00010F4407F204602D0FFF7CFFF04E000F053
:104AD000E9F8204600F0ABF92777280715D530070D
:104AE00013D521686FF00800086104202077206842
:104AF000C0698007204602D0FFF7B7FF04E000F04E
:104B0000D1F8204600F093F92777E80616D5F0068D
:104B100014D521686FF01000086108202077206804
:104B2000C06910F4407F204602D0FFF79EFF04E0EA
:104B300000F0B8F8204600F07AF92777E80708D0A7
:104B4000F00706D021686FF001000861204600F0F0
:104B5000EDF9280601D4A80408D5300606D5216849
:104B60006FF4025008612046FFF797FCE80508D56E
:104B7000300606D521686FF4807008612046FFF783
:104B80008BFC680608D5700606D521686FF04000DA
:104B90000861204600F0CBF9A80608D5B00606D576
:104BA00021686FF0200008612046FFF777FCE802DB
:104BB00008D5F00206D521686FF480100861204600
:104BC000FFF7BDFCA80208D5B00206D521686FF436
:104BD000001008612046FFF7B1FC680208D570029A
:104BE00006D521686FF4800008612046FFF7A8FC15
:104BF00028020AD5300208D521686FF40000086148
:104C00002046BDE8F041FFF747BDBDE8F081000058
:104C1000F0B587B0044614216846FBF735FC1E4901
:104C20002068884236D11D48C16C41F00201C16440
:104C3000C16C01F002010591C16C41F00101C16438
:104C4000C06C022500F0010005904FF4C0400090B8
:104C50000024CDE901540626114FCDE903466946EB
:104C60003846FEF78DFCA8030090CDE901540420DE
:104C7000CDE9034069463846FEF782FC4FF4E06018
:104C80000090CDE90154CDE9034669464FF09040CC
:104C9000FEF776FC07B0F0BD002C0140001002408A
:104CA00000040048704770B5044690F83C000026A8
:104CB0000D4601280BD0012084F83C000C2A4AD074
:104CC00007DC82B1042A20D0082A06D131E0022074
:104CD00070BD102A53D0142A63D00126002084F816
:104CE0003C00304670BD206800F0BCFD2068816942
:104CF00041F0080181612068816921F0040181612E
:104D0000206881692A69114311E0206800F0F8FDEC
:104D10002068816941F4006181612068816921F422
:104D200080618161206881692A6941EA022181618B
:104D3000D4E7206800F02CFE2068C16941F008012A
:104D4000C1612068C16921F00401C1612068C169A5
:104D50002A69114311E0206800F062FE2068C169F1
:104D600041F40061C1612068C16921F48061C161C1
:104D70002068C1692A6941EA0221C161AEE7206861
:104D800000F096FE2068016D41F008010165206881
:104D9000016D21F0040101652068016D2A6911434C
:104DA00011E0206800F0BCFE2068016D41F4006154
:104DB00001652068016D21F4806101652068016D45
:104DC0002A6941EA0221016588E710B5040003D091
:104DD00094F83D0010B107E0012010BD002084F8D8
:104DE0003C00204600F022F8022084F83D00211DFE
:104DF000206800F0ABFC012084F8480084F83E00F5
:104E000084F83F0084F8400084F8410084F84200B0
:104E100084F8430084F8440084F8450084F8460090
:104E200084F8470084F83D00002010BD70477047AB
:104E300030B50446022269B1042912D0082917D0DE
:104E40000C291CD0102921D094F84300012824D02B
:104E5000012030BD94F83E000128F9D184F83E20AD
:104E60001DE094F83F000128F2D184F83F2016E0BD
:104E700094F840000128EBD184F840200FE094F82A
:104E800041000128E4D184F8412008E094F8420070
:104E90000128DDD184F8422001E084F8432001227A
:104EA000206800F0B1FC194B20681949194A984252
:104EB00009D0884207D0904205D0174DA84202D0B1
:104EC000164DA84203D1456C45F400454564206861
:104ED00098420CD0B0F1804F09D0114B984206D0C7
:104EE000104B984203D0884201D0904207D181688C
:104EF0000D4A1140062906D0B1F5803F03D0016864
:104F000041F001010160002030BD0000002C014093
:104F1000003401400040014000440140004801408D
:104F2000000400400008004007000100704770477F
:104F300090F88410012918D0012180F884102421D0
:104F4000C0F8881001680A680B6823F001030B6041
:104F500022F0005100224266036819602021C0F847
:104F6000881080F88420104670470220704770B582
:104F7000044690F8840001281DD0012084F88400A4
:104F80002420C4F8880020680568026822F0010225
:104F900002602068826822F060620A4382602046D4
:104FA00000F01AFE206805602020C4F88800002068
:104FB00084F8840070BD022070BD70B5044690F87E
:104FC000840001281DD0012084F884002420C4F826
:104FD000880020680568026822F0010202602068EB
:104FE000826822F060420A438260204600F0F4FDAD
:104FF000206805602020C4F88800002084F8840020
:1050000070BD022070BD10B5040003D0D4F8880034
:1050100010B107E0012010BD002084F88400204674
:1050200000F026F82420C4F888002068016821F0E8
:1050300001010160A06A10B1204600F0EFFD20469A
:1050400000F0D0FE0128E6D02068416821F49041AC
:1050500041602068816821F02A0181602068016830
:1050600041F0010101602046BDE8104000F03ABE69
:1050700010B598B00446142111A8FBF705FA442195
:105080006846FBF701FA16492068884226D10120BC
:105090000024CDE900046846FEF79AFC08B1FDF74C
:1050A0000DF81048016E41F480410166016E01F473
:1050B00080411691C16C41F00201C164C06C11A91C
:1050C00000F002001690C02011900220CDE91204D9
:1050D0000720CDE914400448FEF752FA18B010BD7D
:1050E0000038014000100240000400482DE9F84358
:1050F0000446D0F88800984616460D46202802D06F
:105100000220BDE8F883A5B19EB10020C4F890004C
:105110002120C4F888001834FEF75CFBA68781467E
:10512000E68754F8100C2027183CB0F5805F02D0B9
:1051300003E00120E5E7206910B12E46002510E0CC
:1051400000260EE08021204600F086FFC0B9DEB1C7
:1051500016F8010B21688862B4F85600401EA4F8C6
:105160005600B4F856004B464FF00002CDF80080D0
:105170000028E7D14FF04001204600F06DFF40B11C
:10518000C4F888700320BCE735F8020BC0F30800B0
:10519000E0E7C4F888700020B3E7FEE700EB810089
:1051A000006E00F0F840704700EB8100006E00F0E8
:1051B000F84070478068C0F3C00070478068C0F353
:1051C000C00070478068C0F3800070478068C0F3FB
:1051D00080007047C06810F4406F01D00020704715
:1051E00001207047042303EAD15310B518444369E2
:1051F000C1F3045107248C40A3438A401343436105
:1052000010BD042303EAD15310B518444369C1F318
:10521000045107248C40A3438A401343436110BDCB
:1052200000EB8100016E21F00041114301667047DF
:1052300000EB8100016E21F00041114301667047CF
:10524000F0B597B020210FA8FBF71EF93C21684666
:10525000FBF71AF934483349002401604FF4403118
:10526000C0E90114042585610121C460C0E904413D
:1052700004774177016280F82440C462046380F8B7
:105280003840C46380F84040FDF7D2FD08B1FCF718
:1052900015FF264E10A906207F270F9681E8910062
:1052A000CDE913540FA92048FDF778FA08B1FCF7AF
:1052B00005FF1F48009001A9092081E89100CDE970
:1052C00004540320089084200A908DF824404FF461
:1052D00080708DF825400B908DF826408DF8304079
:1052E00069461148FCF738FF08B1FCF7E7FE40F2C9
:1052F0000F10CDE9006069460B48FCF72DFF08B19F
:10530000FCF7DCFE0B48009040F215200190694646
:105310000548FCF721FF002801D0FCF7CFFE17B0AD
:10532000F0BD000000010050540000200800900C67
:10533000002090361000C01000B58DB030216846B6
:10534000FBF7A2F81149104808600846FDF796FFE0
:1053500008B1FCF7B3FE0220009000208DF8040095
:105360008DF805000290039004210490CDE9050119
:105370000246079069460548FDF79AFE002801D0CD
:10538000FCF79CFE0DB000BD00080050C0000020DE
:10539000114810B50F490160002141608160C16072
:1053A0000174417481741022426101228261C261E0
:1053B000026242628262C262C0E90C218163C163FF
:1053C000FDF79EFF002803D0BDE81040FCF776BE35
:1053D00010BD000000640040D400002030B587B04C
:1053E00014216846FBF750F81A48C16C41F02001BF
:1053F000C164C16C01F020010591C16C41F0010153
:10540000C164C16C01F001010591C16C41F0020160
:10541000C164C16C01F002010591C16C41F004014D
:10542000C164C06C0C4D00F004004FF48054059032
:10543000002221462846FEF7C7F901210020CDE9C8
:105440000210CDE9004169462846FEF799F807B0F9
:1054500030BD00000010024000040048134810B5A1
:10546000114901604FF4827141604FF480618160A5
:105470004FF44071C16000214FF480220161C0E906
:1054800005121022C0E9072107224162C0E90A1271
:10549000016308214163FEF72FFF002803D0BDE818
:1054A0001040FCF70BBE10BD003C0040380100204E
:1054B00010B59CB0002419941A941794189414945D
:1054C00015941C2168461694FAF7DEFF342107A8CC
:1054D000FAF7DAFF3A483949C0E90014202181601F
:1054E00041F29901C0E903148021C0E90541FFF7A9
:1054F000D4F808B1FCF7E2FD4FF48050179017A9DB
:105500002F48FFF767F908B1FCF7D8FD2C48FFF7E3
:105510005CFC08B1FCF7D2FD1494159414A928483A
:105520001694FFF70FF808B1FCF7C8FD6020CDE92D
:1055300000040294039404940594002269462048D0
:105540000694FFF7B0FB08B1FCF7B8FD04226946EA
:105550001B48FFF7A8FB08B1FCF7B0FD082269461D
:105560001748FFF7A0FB08B1FCF7A8FD41F298002F
:1055700001900C2269461248FFF795FB08B1FCF731
:105580009DFD0794089409944FF400500A94CDE9C6
:105590000B400D9400030E94CDE90F40119412942A
:1055A00007A907481394FEF77BFF08B1FCF786FDB7
:1055B0000348FFF72DFB1CB010BD0000002C01407C
:1055C0009C01002010B58CB024216846FAF75CFFDE
:1055D0000024174809940A9414490B94C0E9001454
:1055E00040F6FF71C0E9024180210461816103201E
:1055F000CDE900040120CDE9020402210491CDE9A6
:105600000540CDE9074169460948FFF763F908B14C
:10561000FCF754FD099409A905480B94FEF792FF85
:10562000002801D0FCF74AFD0CB010BD000400407A
:10563000E8010020174810B515490160164941607E
:10564000002181600C22C160C0E904128161C16146
:10565000016241628162FFF7D6FC08B1FCF72EFDC2
:1056600000210C48FFF7A9FC08B1FCF727FD002139
:105670000848FFF77CFC08B1FCF720FD0548FFF760
:1056800057FC002803D0BDE81040FCF717BD10BD43
:10569000003801403402002080841E00FEE7FEE74F
:1056A00070477047FEF79CB810B594B03821684633
:1056B000FAF7EAFE14210EA8FAF7E6FE0020FEF73C
:1056C00021F9012000900004019002200324CDE97B
:1056D00007045521CDE909010B900C900D90684607
:1056E000FEF708FC08B172B6FEE70F20CDE90E0404
:1056F000002010901190129004210EA8FEF7ACFA31
:10570000002801D072B6FEE714B010BD024801684F
:1057100041F470010160704788ED00E00148FFF737
:10572000A5B900009C0100200148FFF79FB90000C7
:105730009C0100200148FFF799B900009C0100205E
:105740000148FFF793B900009C0100202DE9F043C8
:105750000268264B264D274E274C4FF08049984231
:1057600007D0484505D0A84203D0B04201D0A0429E
:1057700003D122F070074A683A43204FDFF880C017
:10578000DFF8808098420DD048450BD0A84209D060
:10579000B04207D0A04205D0B84203D0604501D046
:1057A000404503D122F44075CA682A434D6922F06E
:1057B00080022A4302608A68C2620A688262984252
:1057C00007D0A04205D0B84203D0604501D0404583
:1057D00001D109690163012141610169C90703D050
:1057E000016921F001010161BDE8F083002C014055
:1057F0000004004000080040003401400040014027
:10580000004401400048014010B501F01F03012190
:10581000046A99408C430462016A9A401143016210
:1058200010BD10B501F00F030421046A99408C43A8
:105830000462016A9A401143016210BD10B5846888
:1058400042EA032224F47F440A432243826010BDCB
:105850008268034B1A400A4342F007018160704797
:105860008FFFCFFF2DE9F043056A026A22F00102A3
:105870000262436882691C4C25F0020522400C68D4
:1058800022F0030214438A68194E2A43174D194F18
:10589000DFF864C0DFF86490A84207D0B04205D0BA
:1058A000B84203D0604501D0484506D122F008082F
:1058B000CA6842EA080222F00402A84207D0B042B5
:1058C00005D0B84203D0604501D0484505D14D69A7
:1058D00023F440731D438B692B4343608461496803
:1058E00041630262BDE8F0838FFFFEFF002C0140A0
:1058F00000340140004001400044014000480140A4
:10590000F0B5056A026A22F01002026242688369F9
:10591000194C1B4E23400C6823F4407343EA0424C3
:1059200025F020038D6843EA0513144DA84201D0E9
:10593000B04206D1CF6823F0800343EA071323F077
:105940004003A8420AD0B04208D00E4DA84205D06C
:105950000D4DA84202D00D4DA84207D14D6922F449
:10596000406242EA85028D6942EA850242608461B2
:10597000496881630362F0BDFF8FFFFE002C014088
:105980000034014000400140004401400048014013
:10599000F0B5056A026A22F4807202624368C26945
:1059A000194C1B4E22400C6822F00302144325F4CC
:1059B00000728D6842EA0522144DA84201D0B0421F
:1059C00006D1CF6822F4006242EA072222F4806204
:1059D000A8420AD0B04208D00E4DA84205D00E4DC4
:1059E000A84202D00D4DA84207D14D6923F440537F
:1059F00043EA05138D6943EA05134360C4614968AE
:105A0000C1630262F0BD00008FFFFEFF002C014069
:105A10000034014000400140004401400048014082
:105A2000F0B5056A026A22F4805202624268C369D4
:105A3000194C1B4E23400C6823F4407343EA0424A2
:105A400025F400538D6843EA0533144DA84201D074
:105A5000B04206D1CF6823F4004343EA073323F46E
:105A60008043A8420AD0B04208D00E4DA84205D0CB
:105A70000D4DA84202D00D4DA84207D14D6922F428
:105A8000404242EA85128D6942EA85124260C46151
:105A9000496801640362F0BDFF8FFFFE002C0140E6
:105AA00000340140004001400044014000480140F2
:105AB00030B5056A026A22F4803202624268036DE0
:105AC000114C23400C681C4325F400330D8943EA34
:105AD00005430E4DA8420BD00D4DA84208D00D4DE8
